{
  "_format": "hh-sol-artifact-1",
  "contractName": "CrowdFunding",
  "sourceName": "contracts/crowdFunding.sol",
  "abi": [
    {
      "inputs": [
        {
          "internalType": "address",
          "name": "_crowdOwner",
          "type": "address"
        },
        {
          "internalType": "string",
          "name": "_name",
          "type": "string"
        }
      ],
      "stateMutability": "nonpayable",
      "type": "constructor"
    },
    {
      "inputs": [],
      "name": "crowdOwner",
      "outputs": [
        {
          "internalType": "address",
          "name": "",
          "type": "address"
        }
      ],
      "stateMutability": "view",
      "type": "function"
    },
    {
      "inputs": [
        {
          "internalType": "address",
          "name": "",
          "type": "address"
        }
      ],
      "name": "donator",
      "outputs": [
        {
          "internalType": "uint256",
          "name": "",
          "type": "uint256"
        }
      ],
      "stateMutability": "view",
      "type": "function"
    },
    {
      "inputs": [],
      "name": "donors",
      "outputs": [
        {
          "internalType": "uint256",
          "name": "",
          "type": "uint256"
        }
      ],
      "stateMutability": "view",
      "type": "function"
    },
    {
      "inputs": [],
      "name": "name",
      "outputs": [
        {
          "internalType": "string",
          "name": "",
          "type": "string"
        }
      ],
      "stateMutability": "view",
      "type": "function"
    },
    {
      "inputs": [],
      "name": "noOfRequest",
      "outputs": [
        {
          "internalType": "uint256",
          "name": "",
          "type": "uint256"
        }
      ],
      "stateMutability": "view",
      "type": "function"
    },
    {
      "inputs": [],
      "name": "registringDonators",
      "outputs": [],
      "stateMutability": "payable",
      "type": "function"
    },
    {
      "inputs": [
        {
          "internalType": "uint256",
          "name": "",
          "type": "uint256"
        }
      ],
      "name": "requestsAvailable",
      "outputs": [
        {
          "internalType": "uint256",
          "name": "_amount",
          "type": "uint256"
        },
        {
          "internalType": "string",
          "name": "_reason",
          "type": "string"
        },
        {
          "internalType": "uint256",
          "name": "noOfVotes",
          "type": "uint256"
        },
        {
          "internalType": "bool",
          "name": "isCompleted",
          "type": "bool"
        }
      ],
      "stateMutability": "view",
      "type": "function"
    },
    {
      "inputs": [
        {
          "internalType": "uint256",
          "name": "_requestId",
          "type": "uint256"
        }
      ],
      "name": "voting",
      "outputs": [],
      "stateMutability": "nonpayable",
      "type": "function"
    },
    {
      "inputs": [
        {
          "internalType": "uint256",
          "name": "_requestId",
          "type": "uint256"
        }
      ],
      "name": "withdrawMoney",
      "outputs": [],
      "stateMutability": "nonpayable",
      "type": "function"
    },
    {
      "inputs": [
        {
          "internalType": "string",
          "name": "_reason",
          "type": "string"
        },
        {
          "internalType": "uint256",
          "name": "_amount",
          "type": "uint256"
        }
      ],
      "name": "withdrawrequest",
      "outputs": [],
      "stateMutability": "nonpayable",
      "type": "function"
    }
  ],
  "bytecode": "0x6080604052600060025560006005553480156200001b57600080fd5b5060405162001f2f38038062001f2f833981810160405281019062000041919062000293565b816000806101000a81548173ffffffffffffffffffffffffffffffffffffffff021916908373ffffffffffffffffffffffffffffffffffffffff160217905550806001908162000092919062000544565b5050506200062b565b6000604051905090565b600080fd5b600080fd5b600073ffffffffffffffffffffffffffffffffffffffff82169050919050565b6000620000dc82620000af565b9050919050565b620000ee81620000cf565b8114620000fa57600080fd5b50565b6000815190506200010e81620000e3565b92915050565b600080fd5b600080fd5b6000601f19601f8301169050919050565b7f4e487b7100000000000000000000000000000000000000000000000000000000600052604160045260246000fd5b62000169826200011e565b810181811067ffffffffffffffff821117156200018b576200018a6200012f565b5b80604052505050565b6000620001a06200009b565b9050620001ae82826200015e565b919050565b600067ffffffffffffffff821115620001d157620001d06200012f565b5b620001dc826200011e565b9050602081019050919050565b60005b8381101562000209578082015181840152602081019050620001ec565b60008484015250505050565b60006200022c6200022684620001b3565b62000194565b9050828152602081018484840111156200024b576200024a62000119565b5b62000258848285620001e9565b509392505050565b600082601f83011262000278576200027762000114565b5b81516200028a84826020860162000215565b91505092915050565b60008060408385031215620002ad57620002ac620000a5565b5b6000620002bd85828601620000fd565b925050602083015167ffffffffffffffff811115620002e157620002e0620000aa565b5b620002ef8582860162000260565b9150509250929050565b600081519050919050565b7f4e487b7100000000000000000000000000000000000000000000000000000000600052602260045260246000fd5b600060028204905060018216806200034c57607f821691505b60208210810362000362576200036162000304565b5b50919050565b60008190508160005260206000209050919050565b60006020601f8301049050919050565b600082821b905092915050565b600060088302620003cc7fffffffffffffffffffffffffffffffffffffffffffffffffffffffffffffffff826200038d565b620003d886836200038d565b95508019841693508086168417925050509392505050565b6000819050919050565b6000819050919050565b6000620004256200041f6200041984620003f0565b620003fa565b620003f0565b9050919050565b6000819050919050565b620004418362000404565b6200045962000450826200042c565b8484546200039a565b825550505050565b600090565b6200047062000461565b6200047d81848462000436565b505050565b5b81811015620004a5576200049960008262000466565b60018101905062000483565b5050565b601f821115620004f457620004be8162000368565b620004c9846200037d565b81016020851015620004d9578190505b620004f1620004e8856200037d565b83018262000482565b50505b505050565b600082821c905092915050565b60006200051960001984600802620004f9565b1980831691505092915050565b600062000534838362000506565b9150826002028217905092915050565b6200054f82620002f9565b67ffffffffffffffff8111156200056b576200056a6200012f565b5b62000577825462000333565b62000584828285620004a9565b600060209050601f831160018114620005bc5760008415620005a7578287015190505b620005b3858262000526565b86555062000623565b601f198416620005cc8662000368565b60005b82811015620005f657848901518255600182019150602085019450602081019050620005cf565b8683101562000616578489015162000612601f89168262000506565b8355505b6001600288020188555050505b505050505050565b6118f4806200063b6000396000f3fe6080604052600436106100915760003560e01c80635671b8be116100595780635671b8be146101695780637a946469146101a95780638f96e588146101d4578063cc51d892146101de578063fd4a77f11461021b57610091565b806306fdde03146100965780633087110a146100c15780633c1498d0146100ec5780634265d5fb146101175780635487692114610140575b600080fd5b3480156100a257600080fd5b506100ab610244565b6040516100b89190610bc3565b60405180910390f35b3480156100cd57600080fd5b506100d66102d2565b6040516100e39190610bfe565b60405180910390f35b3480156100f857600080fd5b506101016102d8565b60405161010e9190610bfe565b60405180910390f35b34801561012357600080fd5b5061013e60048036038101906101399190610d8e565b6102de565b005b34801561014c57600080fd5b5061016760048036038101906101629190610dea565b61040a565b005b34801561017557600080fd5b50610190600480360381019061018b9190610dea565b610660565b6040516101a09493929190610e32565b60405180910390f35b3480156101b557600080fd5b506101be610725565b6040516101cb9190610ebf565b60405180910390f35b6101dc610749565b005b3480156101ea57600080fd5b5061020560048036038101906102009190610f06565b6108da565b6040516102129190610bfe565b60405180910390f35b34801561022757600080fd5b50610242600480360381019061023d9190610dea565b6108f2565b005b6001805461025190610f62565b80601f016020809104026020016040519081016040528092919081815260200182805461027d90610f62565b80156102ca5780601f1061029f576101008083540402835291602001916102ca565b820191906000526020600020905b8154815290600101906020018083116102ad57829003601f168201915b505050505081565b60055481565b60025481565b60008054906101000a900473ffffffffffffffffffffffffffffffffffffffff1673ffffffffffffffffffffffffffffffffffffffff163373ffffffffffffffffffffffffffffffffffffffff161461036c576040517f08c379a000000000000000000000000000000000000000000000000000000000815260040161036390610fdf565b60405180910390fd5b600081116103af576040517f08c379a00000000000000000000000000000000000000000000000000000000081526004016103a69061104b565b60405180910390fd5b60006003600060025481526020019081526020016000209050818160000181905550828160010190816103e29190611217565b50600081600301819055506002600081548092919061040090611318565b9190505550505050565b60006003600083815260200190815260200160002090508060040160009054906101000a900460ff1615610473576040517f08c379a000000000000000000000000000000000000000000000000000000000815260040161046a906113ac565b60405180910390fd5b60008054906101000a900473ffffffffffffffffffffffffffffffffffffffff1673ffffffffffffffffffffffffffffffffffffffff163373ffffffffffffffffffffffffffffffffffffffff1614610501576040517f08c379a00000000000000000000000000000000000000000000000000000000081526004016104f89061143e565b60405180910390fd5b8060000154471015610548576040517f08c379a000000000000000000000000000000000000000000000000000000000815260040161053f906114aa565b60405180910390fd5b600260055461055791906114f9565b8160030154101561056757600080fd5b60008160000154905060018260040160006101000a81548160ff02191690831515021790555060008060009054906101000a900473ffffffffffffffffffffffffffffffffffffffff1673ffffffffffffffffffffffffffffffffffffffff16826040516105d49061155b565b60006040518083038185875af1925050503d8060008114610611576040519150601f19603f3d011682016040523d82523d6000602084013e610616565b606091505b505090508061065a576040517f08c379a0000000000000000000000000000000000000000000000000000000008152600401610651906115bc565b60405180910390fd5b50505050565b600360205280600052604060002060009150905080600001549080600101805461068990610f62565b80601f01602080910402602001604051908101604052809291908181526020018280546106b590610f62565b80156107025780601f106106d757610100808354040283529160200191610702565b820191906000526020600020905b8154815290600101906020018083116106e557829003601f168201915b5050505050908060030154908060040160009054906101000a900460ff16905084565b60008054906101000a900473ffffffffffffffffffffffffffffffffffffffff1681565b3373ffffffffffffffffffffffffffffffffffffffff1660008054906101000a900473ffffffffffffffffffffffffffffffffffffffff1673ffffffffffffffffffffffffffffffffffffffff16036107d7576040517f08c379a00000000000000000000000000000000000000000000000000000000081526004016107ce90611628565b60405180910390fd5b670de0b6b3a7640000341015610822576040517f08c379a000000000000000000000000000000000000000000000000000000000815260040161081990611694565b60405180910390fd5b6000600460003373ffffffffffffffffffffffffffffffffffffffff1673ffffffffffffffffffffffffffffffffffffffff1681526020019081526020016000205403610882576005600081548092919061087c90611318565b91905055505b34600460003373ffffffffffffffffffffffffffffffffffffffff1673ffffffffffffffffffffffffffffffffffffffff16815260200190815260200160002060008282546108d191906116b4565b92505081905550565b60046020528060005260406000206000915090505481565b670de0b6b3a7640000600460003373ffffffffffffffffffffffffffffffffffffffff1673ffffffffffffffffffffffffffffffffffffffff16815260200190815260200160002054101561097c576040517f08c379a000000000000000000000000000000000000000000000000000000000815260040161097390611734565b60405180910390fd5b600060036000838152602001908152602001600020905060008160000154036109da576040517f08c379a00000000000000000000000000000000000000000000000000000000081526004016109d1906117a0565b60405180910390fd5b8060040160009054906101000a900460ff1615610a2c576040517f08c379a0000000000000000000000000000000000000000000000000000000008152600401610a2390611832565b60405180910390fd5b8060020160003373ffffffffffffffffffffffffffffffffffffffff1673ffffffffffffffffffffffffffffffffffffffff16815260200190815260200160002060009054906101000a900460ff1615610abb576040517f08c379a0000000000000000000000000000000000000000000000000000000008152600401610ab29061189e565b60405180910390fd5b60018160020160003373ffffffffffffffffffffffffffffffffffffffff1673ffffffffffffffffffffffffffffffffffffffff16815260200190815260200160002060006101000a81548160ff021916908315150217905550806003016000815480929190610b2a90611318565b91905055505050565b600081519050919050565b600082825260208201905092915050565b60005b83811015610b6d578082015181840152602081019050610b52565b60008484015250505050565b6000601f19601f8301169050919050565b6000610b9582610b33565b610b9f8185610b3e565b9350610baf818560208601610b4f565b610bb881610b79565b840191505092915050565b60006020820190508181036000830152610bdd8184610b8a565b905092915050565b6000819050919050565b610bf881610be5565b82525050565b6000602082019050610c136000830184610bef565b92915050565b6000604051905090565b600080fd5b600080fd5b600080fd5b600080fd5b7f4e487b7100000000000000000000000000000000000000000000000000000000600052604160045260246000fd5b610c6f82610b79565b810181811067ffffffffffffffff82111715610c8e57610c8d610c37565b5b80604052505050565b6000610ca1610c19565b9050610cad8282610c66565b919050565b600067ffffffffffffffff821115610ccd57610ccc610c37565b5b610cd682610b79565b9050602081019050919050565b82818337600083830152505050565b6000610d05610d0084610cb2565b610c97565b905082815260208101848484011115610d2157610d20610c32565b5b610d2c848285610ce3565b509392505050565b600082601f830112610d4957610d48610c2d565b5b8135610d59848260208601610cf2565b91505092915050565b610d6b81610be5565b8114610d7657600080fd5b50565b600081359050610d8881610d62565b92915050565b60008060408385031215610da557610da4610c23565b5b600083013567ffffffffffffffff811115610dc357610dc2610c28565b5b610dcf85828601610d34565b9250506020610de085828601610d79565b9150509250929050565b600060208284031215610e0057610dff610c23565b5b6000610e0e84828501610d79565b91505092915050565b60008115159050919050565b610e2c81610e17565b82525050565b6000608082019050610e476000830187610bef565b8181036020830152610e598186610b8a565b9050610e686040830185610bef565b610e756060830184610e23565b95945050505050565b600073ffffffffffffffffffffffffffffffffffffffff82169050919050565b6000610ea982610e7e565b9050919050565b610eb981610e9e565b82525050565b6000602082019050610ed46000830184610eb0565b92915050565b610ee381610e9e565b8114610eee57600080fd5b50565b600081359050610f0081610eda565b92915050565b600060208284031215610f1c57610f1b610c23565b5b6000610f2a84828501610ef1565b91505092915050565b7f4e487b7100000000000000000000000000000000000000000000000000000000600052602260045260246000fd5b60006002820490506001821680610f7a57607f821691505b602082108103610f8d57610f8c610f33565b5b50919050565b7f796f752063616e74207265717565737420666f72207769746864726177000000600082015250565b6000610fc9601d83610b3e565b9150610fd482610f93565b602082019050919050565b60006020820190508181036000830152610ff881610fbc565b9050919050565b7f61736b20666f72206d6f6e657900000000000000000000000000000000000000600082015250565b6000611035600d83610b3e565b915061104082610fff565b602082019050919050565b6000602082019050818103600083015261106481611028565b9050919050565b60008190508160005260206000209050919050565b60006020601f8301049050919050565b600082821b905092915050565b6000600883026110cd7fffffffffffffffffffffffffffffffffffffffffffffffffffffffffffffffff82611090565b6110d78683611090565b95508019841693508086168417925050509392505050565b6000819050919050565b600061111461110f61110a84610be5565b6110ef565b610be5565b9050919050565b6000819050919050565b61112e836110f9565b61114261113a8261111b565b84845461109d565b825550505050565b600090565b61115761114a565b611162818484611125565b505050565b5b818110156111865761117b60008261114f565b600181019050611168565b5050565b601f8211156111cb5761119c8161106b565b6111a584611080565b810160208510156111b4578190505b6111c86111c085611080565b830182611167565b50505b505050565b600082821c905092915050565b60006111ee600019846008026111d0565b1980831691505092915050565b600061120783836111dd565b9150826002028217905092915050565b61122082610b33565b67ffffffffffffffff81111561123957611238610c37565b5b6112438254610f62565b61124e82828561118a565b600060209050601f831160018114611281576000841561126f578287015190505b61127985826111fb565b8655506112e1565b601f19841661128f8661106b565b60005b828110156112b757848901518255600182019150602085019450602081019050611292565b868310156112d457848901516112d0601f8916826111dd565b8355505b6001600288020188555050505b505050505050565b7f4e487b7100000000000000000000000000000000000000000000000000000000600052601160045260246000fd5b600061132382610be5565b91507fffffffffffffffffffffffffffffffffffffffffffffffffffffffffffffffff8203611355576113546112e9565b5b600182019050919050565b7f416d6f756e7420416c7265616479205769746864726177656420210000000000600082015250565b6000611396601b83610b3e565b91506113a182611360565b602082019050919050565b600060208201905081810360008301526113c581611389565b9050919050565b7f796f752063616e74207265717565737420666f72207769746864726177206d6f60008201527f6e65790000000000000000000000000000000000000000000000000000000000602082015250565b6000611428602383610b3e565b9150611433826113cc565b604082019050919050565b600060208201905081810360008301526114578161141b565b9050919050565b7f796f7520646f6e6f74206861766520616e792062616c616e6365000000000000600082015250565b6000611494601a83610b3e565b915061149f8261145e565b602082019050919050565b600060208201905081810360008301526114c381611487565b9050919050565b7f4e487b7100000000000000000000000000000000000000000000000000000000600052601260045260246000fd5b600061150482610be5565b915061150f83610be5565b92508261151f5761151e6114ca565b5b828204905092915050565b600081905092915050565b50565b600061154560008361152a565b915061155082611535565b600082019050919050565b600061156682611538565b9150819050919050565b7f4661696c656420746f2073656e64204574686572000000000000000000000000600082015250565b60006115a6601483610b3e565b91506115b182611570565b602082019050919050565b600060208201905081810360008301526115d581611599565b9050919050565b7f796f752063616e6e6f7420646f6e617465000000000000000000000000000000600082015250565b6000611612601183610b3e565b915061161d826115dc565b602082019050919050565b6000602082019050818103600083015261164181611605565b9050919050565b7f646f6e61746520736f6d65206d6f6e6579000000000000000000000000000000600082015250565b600061167e601183610b3e565b915061168982611648565b602082019050919050565b600060208201905081810360008301526116ad81611671565b9050919050565b60006116bf82610be5565b91506116ca83610be5565b92508282019050808211156116e2576116e16112e9565b5b92915050565b7f6f6e6c79207265676973746572656420646f6e6f72732063616e20766f746500600082015250565b600061171e601f83610b3e565b9150611729826116e8565b602082019050919050565b6000602082019050818103600083015261174d81611711565b9050919050565b7f72657175657374206e6f7420617661696c61626c650000000000000000000000600082015250565b600061178a601583610b3e565b915061179582611754565b602082019050919050565b600060208201905081810360008301526117b98161177d565b9050919050565b7f43616e6e6f7420566f746520617320416d6f756e7420416c726561647920576960008201527f7468647261776564202100000000000000000000000000000000000000000000602082015250565b600061181c602a83610b3e565b9150611827826117c0565b604082019050919050565b6000602082019050818103600083015261184b8161180f565b9050919050565b7f796f7520616c726561647920766f746564000000000000000000000000000000600082015250565b6000611888601183610b3e565b915061189382611852565b602082019050919050565b600060208201905081810360008301526118b78161187b565b905091905056fea2646970667358221220759fd5ad9d6c09454d83a476e478428d34fc9839d2e472115601c5386ace459664736f6c63430008130033",
  "linkReferences": {},
  "deployedLinkReferences": {}
}